{
  "contractName": "Administrable",
  "abi": [
    {
      "constant": true,
      "inputs": [],
      "name": "owner",
      "outputs": [
        {
          "name": "",
          "type": "address"
        }
      ],
      "payable": false,
      "stateMutability": "view",
      "type": "function"
    },
    {
      "constant": false,
      "inputs": [
        {
          "name": "_newOwner",
          "type": "address"
        }
      ],
      "name": "transferOwnership",
      "outputs": [],
      "payable": false,
      "stateMutability": "nonpayable",
      "type": "function"
    },
    {
      "constant": true,
      "inputs": [
        {
          "name": "",
          "type": "address"
        }
      ],
      "name": "Administrators",
      "outputs": [
        {
          "name": "",
          "type": "bool"
        }
      ],
      "payable": false,
      "stateMutability": "view",
      "type": "function"
    },
    {
      "inputs": [],
      "payable": false,
      "stateMutability": "nonpayable",
      "type": "constructor"
    },
    {
      "anonymous": false,
      "inputs": [
        {
          "indexed": true,
          "name": "affectedAddress",
          "type": "address"
        },
        {
          "indexed": false,
          "name": "isAdminStatus",
          "type": "bool"
        }
      ],
      "name": "AdministratorChanged",
      "type": "event"
    },
    {
      "anonymous": false,
      "inputs": [
        {
          "indexed": true,
          "name": "previousOwner",
          "type": "address"
        },
        {
          "indexed": true,
          "name": "newOwner",
          "type": "address"
        }
      ],
      "name": "OwnershipTransferred",
      "type": "event"
    },
    {
      "constant": true,
      "inputs": [
        {
          "name": "_address",
          "type": "address"
        }
      ],
      "name": "isAdmin",
      "outputs": [
        {
          "name": "",
          "type": "bool"
        }
      ],
      "payable": false,
      "stateMutability": "view",
      "type": "function"
    },
    {
      "constant": false,
      "inputs": [
        {
          "name": "_newAdmin",
          "type": "address"
        }
      ],
      "name": "grantAdmin",
      "outputs": [],
      "payable": false,
      "stateMutability": "nonpayable",
      "type": "function"
    },
    {
      "constant": false,
      "inputs": [
        {
          "name": "_previousAdmin",
          "type": "address"
        }
      ],
      "name": "revokeAdmin",
      "outputs": [],
      "payable": false,
      "stateMutability": "nonpayable",
      "type": "function"
    }
  ],
  "bytecode": "0x608060405234801561001057600080fd5b50336000806101000a81548173ffffffffffffffffffffffffffffffffffffffff021916908373ffffffffffffffffffffffffffffffffffffffff16021790555060018060008060009054906101000a900473ffffffffffffffffffffffffffffffffffffffff1673ffffffffffffffffffffffffffffffffffffffff1673ffffffffffffffffffffffffffffffffffffffff16815260200190815260200160002060006101000a81548160ff0219169083151502179055506107f6806100d86000396000f3fe608060405260043610610078576000357c0100000000000000000000000000000000000000000000000000000000900463ffffffff16806324d7806c1461007d5780632d345670146100e657806335bb3e16146101375780638da5cb5b14610188578063f2fde38b146101df578063f773577014610230575b600080fd5b34801561008957600080fd5b506100cc600480360360208110156100a057600080fd5b81019080803573ffffffffffffffffffffffffffffffffffffffff169060200190929190505050610299565b604051808215151515815260200191505060405180910390f35b3480156100f257600080fd5b506101356004803603602081101561010957600080fd5b81019080803573ffffffffffffffffffffffffffffffffffffffff1690602001909291905050506102ef565b005b34801561014357600080fd5b506101866004803603602081101561015a57600080fd5b81019080803573ffffffffffffffffffffffffffffffffffffffff169060200190929190505050610490565b005b34801561019457600080fd5b5061019d610630565b604051808273ffffffffffffffffffffffffffffffffffffffff1673ffffffffffffffffffffffffffffffffffffffff16815260200191505060405180910390f35b3480156101eb57600080fd5b5061022e6004803603602081101561020257600080fd5b81019080803573ffffffffffffffffffffffffffffffffffffffff169060200190929190505050610655565b005b34801561023c57600080fd5b5061027f6004803603602081101561025357600080fd5b81019080803573ffffffffffffffffffffffffffffffffffffffff1690602001909291905050506107aa565b604051808215151515815260200191505060405180910390f35b6000600160008373ffffffffffffffffffffffffffffffffffffffff1673ffffffffffffffffffffffffffffffffffffffff16815260200190815260200160002060009054906101000a900460ff169050919050565b6000809054906101000a900473ffffffffffffffffffffffffffffffffffffffff1673ffffffffffffffffffffffffffffffffffffffff163373ffffffffffffffffffffffffffffffffffffffff1614151561034a57600080fd5b600073ffffffffffffffffffffffffffffffffffffffff168173ffffffffffffffffffffffffffffffffffffffff16141580156103d7575060011515600160008373ffffffffffffffffffffffffffffffffffffffff1673ffffffffffffffffffffffffffffffffffffffff16815260200190815260200160002060009054906101000a900460ff161515145b15156103e257600080fd5b8073ffffffffffffffffffffffffffffffffffffffff167ff9de19143ac23503b2ae2c503c376de143aa2ce7ad54a06a8a0fccc7f9ac89176000604051808215151515815260200191505060405180910390a26000600160008373ffffffffffffffffffffffffffffffffffffffff1673ffffffffffffffffffffffffffffffffffffffff16815260200190815260200160002060006101000a81548160ff02191690831515021790555050565b6000809054906101000a900473ffffffffffffffffffffffffffffffffffffffff1673ffffffffffffffffffffffffffffffffffffffff163373ffffffffffffffffffffffffffffffffffffffff161415156104eb57600080fd5b600073ffffffffffffffffffffffffffffffffffffffff168173ffffffffffffffffffffffffffffffffffffffff1614158015610578575060001515600160008373ffffffffffffffffffffffffffffffffffffffff1673ffffffffffffffffffffffffffffffffffffffff16815260200190815260200160002060009054906101000a900460ff161515145b151561058357600080fd5b8073ffffffffffffffffffffffffffffffffffffffff167ff9de19143ac23503b2ae2c503c376de143aa2ce7ad54a06a8a0fccc7f9ac89176001604051808215151515815260200191505060405180910390a260018060008373ffffffffffffffffffffffffffffffffffffffff1673ffffffffffffffffffffffffffffffffffffffff16815260200190815260200160002060006101000a81548160ff02191690831515021790555050565b6000809054906101000a900473ffffffffffffffffffffffffffffffffffffffff1681565b6000809054906101000a900473ffffffffffffffffffffffffffffffffffffffff1673ffffffffffffffffffffffffffffffffffffffff163373ffffffffffffffffffffffffffffffffffffffff161415156106b057600080fd5b600073ffffffffffffffffffffffffffffffffffffffff168173ffffffffffffffffffffffffffffffffffffffff16141515156106ec57600080fd5b8073ffffffffffffffffffffffffffffffffffffffff166000809054906101000a900473ffffffffffffffffffffffffffffffffffffffff1673ffffffffffffffffffffffffffffffffffffffff167f8be0079c531659141344cd1fd0a4f28419497f9722a3daafe3b4186f6b6457e060405160405180910390a3806000806101000a81548173ffffffffffffffffffffffffffffffffffffffff021916908373ffffffffffffffffffffffffffffffffffffffff16021790555050565b60016020528060005260406000206000915054906101000a900460ff168156fea165627a7a7230582052944dde0ad315deded3f58fc9f75ed9b730e053dc524933d7812f18292a441c0029",
  "source": "pragma solidity >=0.4.21 <0.6.0;\n\n/**\n * @title Ownable\n * @dev The Ownable contract has an owner address, and provides basic authorization control\n * functions, this simplifies the implementation of \"user permissions\".\n * @author Zeppelin\n */\n\ncontract Ownable {\n\n  address public owner;\n  event OwnershipTransferred(address indexed previousOwner, address indexed newOwner);\n\n  /**\n   * @dev The Ownable constructor sets the original `owner` of the contract to the sender\n   * account.\n   */\n  constructor() public {\n    owner = msg.sender;\n  }\n\n  /**\n   * @dev revert()s if called by any account other than the owner.\n   */\n  modifier onlyOwner() {\n    require(msg.sender == owner);\n    _;\n  }\n\n  /**\n   * @dev Allows the current owner to transfer control of the contract to a newOwner.\n   * @param _newOwner The address to transfer ownership to.\n   */\n  function transferOwnership(address _newOwner) public onlyOwner {\n    require(_newOwner != address(0));\n    emit OwnershipTransferred(owner, _newOwner);\n    owner = _newOwner;\n  }\n}\n\n/**\n * @title Pausable\n * @dev Base contract which allows children to implement an emergency stop mechanism.\n * @author Zeppelin\n */\ncontract Pausable is Ownable {\n  event Pause();\n  event Unpause();\n\n  bool public paused = false;\n\n\n  /**\n   * @dev Modifier to make a function callable only when the contract is not paused.\n   */\n  modifier whenNotPaused() {\n    require(!paused);\n    _;\n  }\n\n  /**\n   * @dev Modifier to make a function callable only when the contract is paused.\n   */\n  modifier whenPaused() {\n    require(paused);\n    _;\n  }\n\n  /**\n   * @dev called by the owner to pause, triggers stopped state\n   */\n  function pause() onlyOwner whenNotPaused public {\n    paused = true;\n    emit Pause();\n  }\n\n  /**\n   * @dev called by the owner to unpause, returns to normal state\n   */\n  function unpause() onlyOwner whenPaused public {\n    paused = false;\n    emit Unpause();\n  }\n}\n\ncontract Mortal is Ownable {\n\n\tfunction kill() onlyOwner public {\n\t\tselfdestruct(msg.sender);\n\t}\n}\n\ncontract Administrable is Ownable {\n\n\tmapping (address => bool) public Administrators;\n\tevent AdministratorChanged(address indexed affectedAddress,bool isAdminStatus);\n\n\t/**\n\t* @dev The Administrable constructor sets the first Administrator to the Owner\n\t* of the contract\n\t*/\n\tconstructor() public {\n\t\tAdministrators[owner]=true;\n\t}\n\n\t/**\n\t* @dev revert()s if called by any account other than an Admin.\n\t*/\n\tmodifier onlyAdmin() {\n\t\trequire(Administrators[msg.sender] == true);\n\t\t_;\n\t}\n\n\tfunction isAdmin(address _address) public view returns(bool) {\n\t\treturn Administrators[_address];\n\t}\n\n\t/**\n\t* @dev Allows the current owner to add a new Administrator\n\t* @param _newAdmin The address to grant Admin rights to.\n\t*/\n\tfunction grantAdmin(address _newAdmin) public onlyOwner {\n\t\trequire(_newAdmin != address(0) && Administrators[_newAdmin]==false);\n\t\temit AdministratorChanged(_newAdmin, true);\n\t\tAdministrators[_newAdmin] = true;\n\t}\n\n\t/**\n\t* @dev Allows the current owner to remove an existing Administrator\n\t* @param _previousAdmin The address to revoke Admin rights from.\n\t*/\n\tfunction revokeAdmin(address _previousAdmin) public onlyOwner {\n\t\trequire(_previousAdmin != address(0) && Administrators[_previousAdmin]==true);\n\t\temit AdministratorChanged(_previousAdmin, false);\n\t\tAdministrators[_previousAdmin] = false;\n\t}\n}\n\n/**\n * @title PoaProposals Contract\n * @dev handels the proposals of the POA chain\n * @author CoreLedger\n */\n /*\ncontract SimpleStorage is Mortal, Pausable, Administrable {\n\n  uint storedData;\n\n  function set(uint x) public {\n    storedData = x;\n  }\n\n  function get() public view returns (uint) {\n    return storedData;\n  }\n}\n*/\ncontract SimpleStorage is Mortal, Pausable, Administrable {\n\n\tstruct ProposalStruct {\n    uint proposalIndex;\n\t\tbytes32 hash;\n\t\taddress topic;\n\t\taddress sender;\n    bool status;\n\t}\n\n\tmapping (address => ProposalStruct) public proposals;\n  address[] private proposalIds;    // all proposals\n\n\tstring public ContractName;      //General purpose name\n\tstring public ContractVersion;   //General purpose version\n\n  event LogPoaCreateProposal(address indexed proposalId, bool indexed status, bytes32 hash, address topic, address sender);\n  event LogPoaSetStatus(address indexed proposalId, bool indexed status);\n  event LogPoaSetHash(address indexed proposalId, bytes32 hash);\n  event LogPoaDeleteProposal(address indexed proposalId);\n\n\tconstructor() public {\n\t\tContractName = \"POA Proposals\";\n\t\tContractVersion = \"0.1\";\n\t}\n\n  function isProposal(address _proposalId) view public returns(bool isIdeed) {\n    if (proposalIds.length == 0) return false;\n    return(proposalIds[proposals[_proposalId].proposalIndex] == _proposalId);\n  }\n\n  function createProposal(address _proposalId) public {\n\t\trequire(_proposalId != address(0), \"Invalid Proposal Id\");\n    proposals[_proposalId].proposalIndex = proposalIds.push(_proposalId) - 1;\n    proposals[_proposalId].hash = keccak256(abi.encodePacked(_proposalId, msg.sender, block.number));\n    proposals[_proposalId].topic = _proposalId;\n    proposals[_proposalId].sender = msg.sender;\n    proposals[_proposalId].status = true;\n\n    emit LogPoaCreateProposal(\n      _proposalId,\n      proposals[_proposalId].status,\n      proposals[_proposalId].hash,\n      proposals[_proposalId].topic,\n      proposals[_proposalId].sender\n    );\n\n    emit LogPoaSetStatus(\n      _proposalId,\n      proposals[_proposalId].status\n    );\n  }\n\n  function setStatus(address _proposalId, bool _status) public {\n\t\trequire(_proposalId != address(0), \"setStatus: Invalid Proposal Idi, Proposal does not exist\");\n    proposals[_proposalId].status = _status;\n    emit LogPoaSetStatus(\n      _proposalId,\n      proposals[_proposalId].status\n    );\n  }\n\n  function setHash(address _proposalId, bytes32 _hash) public {\n\t\trequire(_proposalId != address(0), \"setHash: Invalid Proposal Idi, Proposal does not exist\");\n    proposals[_proposalId].hash = _hash;\n    emit LogPoaSetHash(\n      _proposalId,\n      proposals[_proposalId].hash\n    );\n  }\n\n  function proposalsCount() public view returns(uint count) {\n    return proposalIds.length;\n  }\n\n  function getProposalIds() public view returns(address[] memory) {\n    return proposalIds;\n  }\n\n  function getProposalIdAtIndex(uint _index) public view returns(address proposalId){\n    return(proposalIds[_index]);\n  }\n\n  //* Uncommen this and then the migration will fail\n  /*\n  function getProposal(address _proposalId) public view returns(uint index, bytes32 hash, address topic, address sender, bool status) {\n    require(isProposal(_proposalId), \"getProposal: Invalid Proposal Id. Proposal does not exist\");\n    return (\n      proposals[_proposalId].proposalIndex,\n      proposals[_proposalId].hash,\n      proposals[_proposalId].topic,\n      proposals[_proposalId].sender,\n      proposals[_proposalId].status\n    );\n  }\n\n  function deleteProposal(address _proposalId) public {\n    require(isProposal(_proposalId), \"deleteProposal: Invalid Proposal Id. Proposal does not exist\");\n    uint rowToDelete = proposals[_proposalId].proposalIndex;\n    address keyToMove = proposalIds[proposalIds.length - 1];\n    proposalIds[rowToDelete] = keyToMove;\n    proposals[keyToMove].proposalIndex = rowToDelete;\n    proposalIds.length--;\n    emit LogPoaDeleteProposal(_proposalId);\n  }\n  */\n\n}\n",
  "sourcePath": "/home/damian/src/truffle/truffle-ws-migrate-test/contracts/SimpleStorage.sol",
  "compiler": {
    "name": "solc",
    "version": "0.5.0+commit.1d4f565a.Emscripten.clang"
  },
  "schemaVersion": "3.0.2",
  "updatedAt": "2019-03-02T09:04:54.360Z",
  "devdoc": {
    "methods": {
      "constructor": {
        "details": "The Administrable constructor sets the first Administrator to the Owner of the contract"
      },
      "grantAdmin(address)": {
        "details": "Allows the current owner to add a new Administrator",
        "params": {
          "_newAdmin": "The address to grant Admin rights to."
        }
      },
      "revokeAdmin(address)": {
        "details": "Allows the current owner to remove an existing Administrator",
        "params": {
          "_previousAdmin": "The address to revoke Admin rights from."
        }
      },
      "transferOwnership(address)": {
        "details": "Allows the current owner to transfer control of the contract to a newOwner.",
        "params": {
          "_newOwner": "The address to transfer ownership to."
        }
      }
    }
  },
  "userdoc": {
    "methods": {}
  }
}